{
  "_format": "hh-sol-artifact-1",
  "contractName": "MadMarty",
  "sourceName": "contracts/MadMarty.sol",
  "abi": [
    {
      "inputs": [
        {
          "internalType": "string",
          "name": "name_",
          "type": "string"
        },
        {
          "internalType": "string",
          "name": "symbol_",
          "type": "string"
        },
        {
          "internalType": "uint256",
          "name": "price",
          "type": "uint256"
        },
        {
          "internalType": "uint256",
          "name": "maxPurchase",
          "type": "uint256"
        },
        {
          "internalType": "uint256",
          "name": "maxSupply_",
          "type": "uint256"
        }
      ],
      "stateMutability": "nonpayable",
      "type": "constructor"
    },
    {
      "anonymous": false,
      "inputs": [
        {
          "indexed": true,
          "internalType": "address",
          "name": "owner",
          "type": "address"
        },
        {
          "indexed": true,
          "internalType": "address",
          "name": "approved",
          "type": "address"
        },
        {
          "indexed": true,
          "internalType": "uint256",
          "name": "tokenId",
          "type": "uint256"
        }
      ],
      "name": "Approval",
      "type": "event"
    },
    {
      "anonymous": false,
      "inputs": [
        {
          "indexed": true,
          "internalType": "address",
          "name": "owner",
          "type": "address"
        },
        {
          "indexed": true,
          "internalType": "address",
          "name": "operator",
          "type": "address"
        },
        {
          "indexed": false,
          "internalType": "bool",
          "name": "approved",
          "type": "bool"
        }
      ],
      "name": "ApprovalForAll",
      "type": "event"
    },
    {
      "anonymous": false,
      "inputs": [
        {
          "indexed": true,
          "internalType": "address",
          "name": "previousOwner",
          "type": "address"
        },
        {
          "indexed": true,
          "internalType": "address",
          "name": "newOwner",
          "type": "address"
        }
      ],
      "name": "OwnershipTransferred",
      "type": "event"
    },
    {
      "anonymous": false,
      "inputs": [
        {
          "indexed": true,
          "internalType": "address",
          "name": "from",
          "type": "address"
        },
        {
          "indexed": true,
          "internalType": "address",
          "name": "to",
          "type": "address"
        },
        {
          "indexed": true,
          "internalType": "uint256",
          "name": "tokenId",
          "type": "uint256"
        }
      ],
      "name": "Transfer",
      "type": "event"
    },
    {
      "inputs": [],
      "name": "MAX_NFT_PURCHASE",
      "outputs": [
        {
          "internalType": "uint256",
          "name": "",
          "type": "uint256"
        }
      ],
      "stateMutability": "view",
      "type": "function"
    },
    {
      "inputs": [],
      "name": "NFT_PRICE",
      "outputs": [
        {
          "internalType": "uint256",
          "name": "",
          "type": "uint256"
        }
      ],
      "stateMutability": "view",
      "type": "function"
    },
    {
      "inputs": [
        {
          "internalType": "address",
          "name": "to",
          "type": "address"
        },
        {
          "internalType": "uint256",
          "name": "tokenId",
          "type": "uint256"
        }
      ],
      "name": "approve",
      "outputs": [],
      "stateMutability": "nonpayable",
      "type": "function"
    },
    {
      "inputs": [
        {
          "internalType": "address",
          "name": "owner",
          "type": "address"
        }
      ],
      "name": "balanceOf",
      "outputs": [
        {
          "internalType": "uint256",
          "name": "",
          "type": "uint256"
        }
      ],
      "stateMutability": "view",
      "type": "function"
    },
    {
      "inputs": [],
      "name": "flipSaleState",
      "outputs": [],
      "stateMutability": "nonpayable",
      "type": "function"
    },
    {
      "inputs": [
        {
          "internalType": "uint256",
          "name": "tokenId",
          "type": "uint256"
        }
      ],
      "name": "getApproved",
      "outputs": [
        {
          "internalType": "address",
          "name": "",
          "type": "address"
        }
      ],
      "stateMutability": "view",
      "type": "function"
    },
    {
      "inputs": [
        {
          "internalType": "address",
          "name": "owner",
          "type": "address"
        },
        {
          "internalType": "address",
          "name": "operator",
          "type": "address"
        }
      ],
      "name": "isApprovedForAll",
      "outputs": [
        {
          "internalType": "bool",
          "name": "",
          "type": "bool"
        }
      ],
      "stateMutability": "view",
      "type": "function"
    },
    {
      "inputs": [],
      "name": "maxSupply",
      "outputs": [
        {
          "internalType": "uint256",
          "name": "",
          "type": "uint256"
        }
      ],
      "stateMutability": "view",
      "type": "function"
    },
    {
      "inputs": [
        {
          "internalType": "uint256",
          "name": "numberOfTokens",
          "type": "uint256"
        }
      ],
      "name": "mint",
      "outputs": [],
      "stateMutability": "payable",
      "type": "function"
    },
    {
      "inputs": [],
      "name": "name",
      "outputs": [
        {
          "internalType": "string",
          "name": "",
          "type": "string"
        }
      ],
      "stateMutability": "view",
      "type": "function"
    },
    {
      "inputs": [],
      "name": "owner",
      "outputs": [
        {
          "internalType": "address",
          "name": "",
          "type": "address"
        }
      ],
      "stateMutability": "view",
      "type": "function"
    },
    {
      "inputs": [
        {
          "internalType": "uint256",
          "name": "tokenId",
          "type": "uint256"
        }
      ],
      "name": "ownerOf",
      "outputs": [
        {
          "internalType": "address",
          "name": "",
          "type": "address"
        }
      ],
      "stateMutability": "view",
      "type": "function"
    },
    {
      "inputs": [],
      "name": "renounceOwnership",
      "outputs": [],
      "stateMutability": "nonpayable",
      "type": "function"
    },
    {
      "inputs": [
        {
          "internalType": "uint256",
          "name": "num",
          "type": "uint256"
        }
      ],
      "name": "reserveTokens",
      "outputs": [],
      "stateMutability": "nonpayable",
      "type": "function"
    },
    {
      "inputs": [
        {
          "internalType": "address",
          "name": "from",
          "type": "address"
        },
        {
          "internalType": "address",
          "name": "to",
          "type": "address"
        },
        {
          "internalType": "uint256",
          "name": "tokenId",
          "type": "uint256"
        }
      ],
      "name": "safeTransferFrom",
      "outputs": [],
      "stateMutability": "nonpayable",
      "type": "function"
    },
    {
      "inputs": [
        {
          "internalType": "address",
          "name": "from",
          "type": "address"
        },
        {
          "internalType": "address",
          "name": "to",
          "type": "address"
        },
        {
          "internalType": "uint256",
          "name": "tokenId",
          "type": "uint256"
        },
        {
          "internalType": "bytes",
          "name": "_data",
          "type": "bytes"
        }
      ],
      "name": "safeTransferFrom",
      "outputs": [],
      "stateMutability": "nonpayable",
      "type": "function"
    },
    {
      "inputs": [],
      "name": "saleIsActive",
      "outputs": [
        {
          "internalType": "bool",
          "name": "",
          "type": "bool"
        }
      ],
      "stateMutability": "view",
      "type": "function"
    },
    {
      "inputs": [
        {
          "internalType": "address",
          "name": "operator",
          "type": "address"
        },
        {
          "internalType": "bool",
          "name": "approved",
          "type": "bool"
        }
      ],
      "name": "setApprovalForAll",
      "outputs": [],
      "stateMutability": "nonpayable",
      "type": "function"
    },
    {
      "inputs": [
        {
          "internalType": "string",
          "name": "baseURI_",
          "type": "string"
        }
      ],
      "name": "setBaseURI",
      "outputs": [],
      "stateMutability": "nonpayable",
      "type": "function"
    },
    {
      "inputs": [
        {
          "internalType": "bytes4",
          "name": "interfaceId",
          "type": "bytes4"
        }
      ],
      "name": "supportsInterface",
      "outputs": [
        {
          "internalType": "bool",
          "name": "",
          "type": "bool"
        }
      ],
      "stateMutability": "view",
      "type": "function"
    },
    {
      "inputs": [],
      "name": "symbol",
      "outputs": [
        {
          "internalType": "string",
          "name": "",
          "type": "string"
        }
      ],
      "stateMutability": "view",
      "type": "function"
    },
    {
      "inputs": [
        {
          "internalType": "uint256",
          "name": "index",
          "type": "uint256"
        }
      ],
      "name": "tokenByIndex",
      "outputs": [
        {
          "internalType": "uint256",
          "name": "",
          "type": "uint256"
        }
      ],
      "stateMutability": "view",
      "type": "function"
    },
    {
      "inputs": [
        {
          "internalType": "address",
          "name": "owner",
          "type": "address"
        },
        {
          "internalType": "uint256",
          "name": "index",
          "type": "uint256"
        }
      ],
      "name": "tokenOfOwnerByIndex",
      "outputs": [
        {
          "internalType": "uint256",
          "name": "",
          "type": "uint256"
        }
      ],
      "stateMutability": "view",
      "type": "function"
    },
    {
      "inputs": [
        {
          "internalType": "uint256",
          "name": "tokenId",
          "type": "uint256"
        }
      ],
      "name": "tokenURI",
      "outputs": [
        {
          "internalType": "string",
          "name": "",
          "type": "string"
        }
      ],
      "stateMutability": "view",
      "type": "function"
    },
    {
      "inputs": [],
      "name": "totalSupply",
      "outputs": [
        {
          "internalType": "uint256",
          "name": "",
          "type": "uint256"
        }
      ],
      "stateMutability": "view",
      "type": "function"
    },
    {
      "inputs": [
        {
          "internalType": "address",
          "name": "from",
          "type": "address"
        },
        {
          "internalType": "address",
          "name": "to",
          "type": "address"
        },
        {
          "internalType": "uint256",
          "name": "tokenId",
          "type": "uint256"
        }
      ],
      "name": "transferFrom",
      "outputs": [],
      "stateMutability": "nonpayable",
      "type": "function"
    },
    {
      "inputs": [
        {
          "internalType": "address",
          "name": "newOwner",
          "type": "address"
        }
      ],
      "name": "transferOwnership",
      "outputs": [],
      "stateMutability": "nonpayable",
      "type": "function"
    },
    {
      "inputs": [],
      "name": "withdraw",
      "outputs": [],
      "stateMutability": "nonpayable",
      "type": "function"
    }
  ],
  "bytecode": "0x60c06040526000600c60006101000a81548160ff0219169083151502179055503480156200002c57600080fd5b50604051620045bc380380620045bc8339818101604052810190620000529190620002dd565b848481600090805190602001906200006c92919062000198565b5080600190805190602001906200008592919062000198565b505050620000a86200009c620000ca60201b60201c565b620000d260201b60201c565b82608081815250508160a0818152505080600b8190555050505050506200054b565b600033905090565b6000600a60009054906101000a900473ffffffffffffffffffffffffffffffffffffffff16905081600a60006101000a81548173ffffffffffffffffffffffffffffffffffffffff021916908373ffffffffffffffffffffffffffffffffffffffff1602179055508173ffffffffffffffffffffffffffffffffffffffff168173ffffffffffffffffffffffffffffffffffffffff167f8be0079c531659141344cd1fd0a4f28419497f9722a3daafe3b4186f6b6457e060405160405180910390a35050565b828054620001a69062000442565b90600052602060002090601f016020900481019282620001ca576000855562000216565b82601f10620001e557805160ff191683800117855562000216565b8280016001018555821562000216579182015b8281111562000215578251825591602001919060010190620001f8565b5b50905062000225919062000229565b5090565b5b80821115620002445760008160009055506001016200022a565b5090565b60006200025f6200025984620003cc565b620003a3565b9050828152602081018484840111156200027e576200027d62000511565b5b6200028b8482856200040c565b509392505050565b600082601f830112620002ab57620002aa6200050c565b5b8151620002bd84826020860162000248565b91505092915050565b600081519050620002d78162000531565b92915050565b600080600080600060a08688031215620002fc57620002fb6200051b565b5b600086015167ffffffffffffffff8111156200031d576200031c62000516565b5b6200032b8882890162000293565b955050602086015167ffffffffffffffff8111156200034f576200034e62000516565b5b6200035d8882890162000293565b94505060406200037088828901620002c6565b93505060606200038388828901620002c6565b92505060806200039688828901620002c6565b9150509295509295909350565b6000620003af620003c2565b9050620003bd828262000478565b919050565b6000604051905090565b600067ffffffffffffffff821115620003ea57620003e9620004dd565b5b620003f58262000520565b9050602081019050919050565b6000819050919050565b60005b838110156200042c5780820151818401526020810190506200040f565b838111156200043c576000848401525b50505050565b600060028204905060018216806200045b57607f821691505b60208210811415620004725762000471620004ae565b5b50919050565b620004838262000520565b810181811067ffffffffffffffff82111715620004a557620004a4620004dd565b5b80604052505050565b7f4e487b7100000000000000000000000000000000000000000000000000000000600052602260045260246000fd5b7f4e487b7100000000000000000000000000000000000000000000000000000000600052604160045260246000fd5b600080fd5b600080fd5b600080fd5b600080fd5b6000601f19601f8301169050919050565b6200053c8162000402565b81146200054857600080fd5b50565b60805160a05161403d6200057f6000396000818161072101526110e7015260008181610dd2015261114f015261403d6000f3fe6080604052600436106101b75760003560e01c8063676dd563116100ec578063b88d4fde1161008a578063d5abeb0111610064578063d5abeb01146105e9578063e985e9c514610614578063eb8d244414610651578063f2fde38b1461067c576101b7565b8063b88d4fde1461055a578063c87b56dd14610583578063d031370b146105c0576101b7565b80638da5cb5b116100c65780638da5cb5b146104bf57806395d89b41146104ea578063a0712d6814610515578063a22cb46514610531576101b7565b8063676dd5631461044057806370a082311461046b578063715018a6146104a8576101b7565b80632f745c591161015957806342842e0e1161013357806342842e0e146103745780634f6ccce71461039d57806355f804b3146103da5780636352211e14610403576101b7565b80632f745c591461030957806334918dfd146103465780633ccfd60b1461035d576101b7565b8063081812fc11610195578063081812fc1461024f578063095ea7b31461028c57806318160ddd146102b557806323b872dd146102e0576101b7565b806301ffc9a7146101bc578063020b39cc146101f957806306fdde0314610224575b600080fd5b3480156101c857600080fd5b506101e360048036038101906101de9190612c63565b6106a5565b6040516101f091906131b3565b60405180910390f35b34801561020557600080fd5b5061020e61071f565b60405161021b91906134d0565b60405180910390f35b34801561023057600080fd5b50610239610743565b60405161024691906131ce565b60405180910390f35b34801561025b57600080fd5b5061027660048036038101906102719190612d06565b6107d5565b604051610283919061314c565b60405180910390f35b34801561029857600080fd5b506102b360048036038101906102ae9190612c23565b61085a565b005b3480156102c157600080fd5b506102ca610972565b6040516102d791906134d0565b60405180910390f35b3480156102ec57600080fd5b5061030760048036038101906103029190612b0d565b61097f565b005b34801561031557600080fd5b50610330600480360381019061032b9190612c23565b6109df565b60405161033d91906134d0565b60405180910390f35b34801561035257600080fd5b5061035b610a84565b005b34801561036957600080fd5b50610372610b2c565b005b34801561038057600080fd5b5061039b60048036038101906103969190612b0d565b610bf7565b005b3480156103a957600080fd5b506103c460048036038101906103bf9190612d06565b610c17565b6040516103d191906134d0565b60405180910390f35b3480156103e657600080fd5b5061040160048036038101906103fc9190612cbd565b610c88565b005b34801561040f57600080fd5b5061042a60048036038101906104259190612d06565b610d1e565b604051610437919061314c565b60405180910390f35b34801561044c57600080fd5b50610455610dd0565b60405161046291906134d0565b60405180910390f35b34801561047757600080fd5b50610492600480360381019061048d9190612aa0565b610df4565b60405161049f91906134d0565b60405180910390f35b3480156104b457600080fd5b506104bd610eac565b005b3480156104cb57600080fd5b506104d4610f34565b6040516104e1919061314c565b60405180910390f35b3480156104f657600080fd5b506104ff610f5e565b60405161050c91906131ce565b60405180910390f35b61052f600480360381019061052a9190612d06565b610ff0565b005b34801561053d57600080fd5b5061055860048036038101906105539190612be3565b6111e9565b005b34801561056657600080fd5b50610581600480360381019061057c9190612b60565b61136a565b005b34801561058f57600080fd5b506105aa60048036038101906105a59190612d06565b6113cc565b6040516105b791906131ce565b60405180910390f35b3480156105cc57600080fd5b506105e760048036038101906105e29190612d06565b61154b565b005b3480156105f557600080fd5b506105fe61160b565b60405161060b91906134d0565b60405180910390f35b34801561062057600080fd5b5061063b60048036038101906106369190612acd565b611611565b60405161064891906131b3565b60405180910390f35b34801561065d57600080fd5b506106666116a5565b60405161067391906131b3565b60405180910390f35b34801561068857600080fd5b506106a3600480360381019061069e9190612aa0565b6116b8565b005b60007f780e9d63000000000000000000000000000000000000000000000000000000007bffffffffffffffffffffffffffffffffffffffffffffffffffffffff1916827bffffffffffffffffffffffffffffffffffffffffffffffffffffffff191614806107185750610717826117b0565b5b9050919050565b7f000000000000000000000000000000000000000000000000000000000000000081565b60606000805461075290613780565b80601f016020809104026020016040519081016040528092919081815260200182805461077e90613780565b80156107cb5780601f106107a0576101008083540402835291602001916107cb565b820191906000526020600020905b8154815290600101906020018083116107ae57829003601f168201915b5050505050905090565b60006107e082611892565b61081f576040517f08c379a0000000000000000000000000000000000000000000000000000000008152600401610816906133d0565b60405180910390fd5b6004600083815260200190815260200160002060009054906101000a900473ffffffffffffffffffffffffffffffffffffffff169050919050565b600061086582610d1e565b90508073ffffffffffffffffffffffffffffffffffffffff168373ffffffffffffffffffffffffffffffffffffffff1614156108d6576040517f08c379a00000000000000000000000000000000000000000000000000000000081526004016108cd90613450565b60405180910390fd5b8073ffffffffffffffffffffffffffffffffffffffff166108f56118fe565b73ffffffffffffffffffffffffffffffffffffffff16148061092457506109238161091e6118fe565b611611565b5b610963576040517f08c379a000000000000000000000000000000000000000000000000000000000815260040161095a90613310565b60405180910390fd5b61096d8383611906565b505050565b6000600880549050905090565b61099061098a6118fe565b826119bf565b6109cf576040517f08c379a00000000000000000000000000000000000000000000000000000000081526004016109c690613470565b60405180910390fd5b6109da838383611a9d565b505050565b60006109ea83610df4565b8210610a2b576040517f08c379a0000000000000000000000000000000000000000000000000000000008152600401610a2290613210565b60405180910390fd5b600660008473ffffffffffffffffffffffffffffffffffffffff1673ffffffffffffffffffffffffffffffffffffffff168152602001908152602001600020600083815260200190815260200160002054905092915050565b610a8c6118fe565b73ffffffffffffffffffffffffffffffffffffffff16610aaa610f34565b73ffffffffffffffffffffffffffffffffffffffff1614610b00576040517f08c379a0000000000000000000000000000000000000000000000000000000008152600401610af7906133f0565b60405180910390fd5b600c60009054906101000a900460ff1615600c60006101000a81548160ff021916908315150217905550565b610b346118fe565b73ffffffffffffffffffffffffffffffffffffffff16610b52610f34565b73ffffffffffffffffffffffffffffffffffffffff1614610ba8576040517f08c379a0000000000000000000000000000000000000000000000000000000008152600401610b9f906133f0565b60405180910390fd5b60004790503373ffffffffffffffffffffffffffffffffffffffff166108fc829081150290604051600060405180830381858888f19350505050158015610bf3573d6000803e3d6000fd5b5050565b610c128383836040518060200160405280600081525061136a565b505050565b6000610c21610972565b8210610c62576040517f08c379a0000000000000000000000000000000000000000000000000000000008152600401610c5990613490565b60405180910390fd5b60088281548110610c7657610c75613919565b5b90600052602060002001549050919050565b610c906118fe565b73ffffffffffffffffffffffffffffffffffffffff16610cae610f34565b73ffffffffffffffffffffffffffffffffffffffff1614610d04576040517f08c379a0000000000000000000000000000000000000000000000000000000008152600401610cfb906133f0565b60405180910390fd5b80600d9080519060200190610d1a9291906128b4565b5050565b6000806002600084815260200190815260200160002060009054906101000a900473ffffffffffffffffffffffffffffffffffffffff169050600073ffffffffffffffffffffffffffffffffffffffff168173ffffffffffffffffffffffffffffffffffffffff161415610dc7576040517f08c379a0000000000000000000000000000000000000000000000000000000008152600401610dbe90613350565b60405180910390fd5b80915050919050565b7f000000000000000000000000000000000000000000000000000000000000000081565b60008073ffffffffffffffffffffffffffffffffffffffff168273ffffffffffffffffffffffffffffffffffffffff161415610e65576040517f08c379a0000000000000000000000000000000000000000000000000000000008152600401610e5c90613330565b60405180910390fd5b600360008373ffffffffffffffffffffffffffffffffffffffff1673ffffffffffffffffffffffffffffffffffffffff168152602001908152602001600020549050919050565b610eb46118fe565b73ffffffffffffffffffffffffffffffffffffffff16610ed2610f34565b73ffffffffffffffffffffffffffffffffffffffff1614610f28576040517f08c379a0000000000000000000000000000000000000000000000000000000008152600401610f1f906133f0565b60405180910390fd5b610f326000611cf9565b565b6000600a60009054906101000a900473ffffffffffffffffffffffffffffffffffffffff16905090565b606060018054610f6d90613780565b80601f0160208091040260200160405190810160405280929190818152602001828054610f9990613780565b8015610fe65780601f10610fbb57610100808354040283529160200191610fe6565b820191906000526020600020905b815481529060010190602001808311610fc957829003601f168201915b5050505050905090565b6000610ffa610972565b9050600c60009054906101000a900460ff1661104b576040517f08c379a0000000000000000000000000000000000000000000000000000000008152600401611042906134b0565b60405180910390fd5b6000821161108e576040517f08c379a0000000000000000000000000000000000000000000000000000000008152600401611085906131f0565b60405180910390fd5b600b546110a48383611dbf90919063ffffffff16565b11156110e5576040517f08c379a00000000000000000000000000000000000000000000000000000000081526004016110dc90613390565b60405180910390fd5b7f0000000000000000000000000000000000000000000000000000000000000000821115611148576040517f08c379a000000000000000000000000000000000000000000000000000000000815260040161113f90613290565b60405180910390fd5b3461117c837f0000000000000000000000000000000000000000000000000000000000000000611dd590919063ffffffff16565b146111bc576040517f08c379a00000000000000000000000000000000000000000000000000000000081526004016111b390613370565b60405180910390fd5b60005b828110156111e4576111d13383611deb565b80806111dc906137e3565b9150506111bf565b505050565b6111f16118fe565b73ffffffffffffffffffffffffffffffffffffffff168273ffffffffffffffffffffffffffffffffffffffff16141561125f576040517f08c379a0000000000000000000000000000000000000000000000000000000008152600401611256906132d0565b60405180910390fd5b806005600061126c6118fe565b73ffffffffffffffffffffffffffffffffffffffff1673ffffffffffffffffffffffffffffffffffffffff16815260200190815260200160002060008473ffffffffffffffffffffffffffffffffffffffff1673ffffffffffffffffffffffffffffffffffffffff16815260200190815260200160002060006101000a81548160ff0219169083151502179055508173ffffffffffffffffffffffffffffffffffffffff166113196118fe565b73ffffffffffffffffffffffffffffffffffffffff167f17307eab39ab6107e8899845ad3d59bd9653f200f220920489ca2b5937696c318360405161135e91906131b3565b60405180910390a35050565b61137b6113756118fe565b836119bf565b6113ba576040517f08c379a00000000000000000000000000000000000000000000000000000000081526004016113b190613470565b60405180910390fd5b6113c684848484611e09565b50505050565b60606113d782611892565b611416576040517f08c379a000000000000000000000000000000000000000000000000000000000815260040161140d90613430565b60405180910390fd5b6000600e6000848152602001908152602001600020805461143690613780565b80601f016020809104026020016040519081016040528092919081815260200182805461146290613780565b80156114af5780601f10611484576101008083540402835291602001916114af565b820191906000526020600020905b81548152906001019060200180831161149257829003601f168201915b5050505050905060006114c0611e65565b90506000815114156114d6578192505050611546565b60008251111561150b5780826040516020016114f3929190613128565b60405160208183030381529060405292505050611546565b8061152160018661151c91906135b5565b611ef7565b604051602001611532929190613128565b604051602081830303815290604052925050505b919050565b6115536118fe565b73ffffffffffffffffffffffffffffffffffffffff16611571610f34565b73ffffffffffffffffffffffffffffffffffffffff16146115c7576040517f08c379a00000000000000000000000000000000000000000000000000000000081526004016115be906133f0565b60405180910390fd5b60006115d1610972565b905060005b82811015611606576115f33382846115ee91906135b5565b611deb565b80806115fe906137e3565b9150506115d6565b505050565b600b5481565b6000600560008473ffffffffffffffffffffffffffffffffffffffff1673ffffffffffffffffffffffffffffffffffffffff16815260200190815260200160002060008373ffffffffffffffffffffffffffffffffffffffff1673ffffffffffffffffffffffffffffffffffffffff16815260200190815260200160002060009054906101000a900460ff16905092915050565b600c60009054906101000a900460ff1681565b6116c06118fe565b73ffffffffffffffffffffffffffffffffffffffff166116de610f34565b73ffffffffffffffffffffffffffffffffffffffff1614611734576040517f08c379a000000000000000000000000000000000000000000000000000000000815260040161172b906133f0565b60405180910390fd5b600073ffffffffffffffffffffffffffffffffffffffff168173ffffffffffffffffffffffffffffffffffffffff1614156117a4576040517f08c379a000000000000000000000000000000000000000000000000000000000815260040161179b90613250565b60405180910390fd5b6117ad81611cf9565b50565b60007f80ac58cd000000000000000000000000000000000000000000000000000000007bffffffffffffffffffffffffffffffffffffffffffffffffffffffff1916827bffffffffffffffffffffffffffffffffffffffffffffffffffffffff1916148061187b57507f5b5e139f000000000000000000000000000000000000000000000000000000007bffffffffffffffffffffffffffffffffffffffffffffffffffffffff1916827bffffffffffffffffffffffffffffffffffffffffffffffffffffffff1916145b8061188b575061188a82612058565b5b9050919050565b60008073ffffffffffffffffffffffffffffffffffffffff166002600084815260200190815260200160002060009054906101000a900473ffffffffffffffffffffffffffffffffffffffff1673ffffffffffffffffffffffffffffffffffffffff1614159050919050565b600033905090565b816004600083815260200190815260200160002060006101000a81548173ffffffffffffffffffffffffffffffffffffffff021916908373ffffffffffffffffffffffffffffffffffffffff160217905550808273ffffffffffffffffffffffffffffffffffffffff1661197983610d1e565b73ffffffffffffffffffffffffffffffffffffffff167f8c5be1e5ebec7d5bd14f71427d1e84f3dd0314c0f7b2291e5b200ac8c7c3b92560405160405180910390a45050565b60006119ca82611892565b611a09576040517f08c379a0000000000000000000000000000000000000000000000000000000008152600401611a00906132f0565b60405180910390fd5b6000611a1483610d1e565b90508073ffffffffffffffffffffffffffffffffffffffff168473ffffffffffffffffffffffffffffffffffffffff161480611a8357508373ffffffffffffffffffffffffffffffffffffffff16611a6b846107d5565b73ffffffffffffffffffffffffffffffffffffffff16145b80611a945750611a938185611611565b5b91505092915050565b8273ffffffffffffffffffffffffffffffffffffffff16611abd82610d1e565b73ffffffffffffffffffffffffffffffffffffffff1614611b13576040517f08c379a0000000000000000000000000000000000000000000000000000000008152600401611b0a90613410565b60405180910390fd5b600073ffffffffffffffffffffffffffffffffffffffff168273ffffffffffffffffffffffffffffffffffffffff161415611b83576040517f08c379a0000000000000000000000000000000000000000000000000000000008152600401611b7a906132b0565b60405180910390fd5b611b8e8383836120c2565b611b99600082611906565b6001600360008573ffffffffffffffffffffffffffffffffffffffff1673ffffffffffffffffffffffffffffffffffffffff1681526020019081526020016000206000828254611be99190613696565b925050819055506001600360008473ffffffffffffffffffffffffffffffffffffffff1673ffffffffffffffffffffffffffffffffffffffff1681526020019081526020016000206000828254611c4091906135b5565b92505081905550816002600083815260200190815260200160002060006101000a81548173ffffffffffffffffffffffffffffffffffffffff021916908373ffffffffffffffffffffffffffffffffffffffff160217905550808273ffffffffffffffffffffffffffffffffffffffff168473ffffffffffffffffffffffffffffffffffffffff167fddf252ad1be2c89b69c2b068fc378daa952ba7f163c4a11628f55a4df523b3ef60405160405180910390a4505050565b6000600a60009054906101000a900473ffffffffffffffffffffffffffffffffffffffff16905081600a60006101000a81548173ffffffffffffffffffffffffffffffffffffffff021916908373ffffffffffffffffffffffffffffffffffffffff1602179055508173ffffffffffffffffffffffffffffffffffffffff168173ffffffffffffffffffffffffffffffffffffffff167f8be0079c531659141344cd1fd0a4f28419497f9722a3daafe3b4186f6b6457e060405160405180910390a35050565b60008183611dcd91906135b5565b905092915050565b60008183611de3919061363c565b905092915050565b611e058282604051806020016040528060008152506121d6565b5050565b611e14848484611a9d565b611e2084848484612231565b611e5f576040517f08c379a0000000000000000000000000000000000000000000000000000000008152600401611e5690613230565b60405180910390fd5b50505050565b6060600d8054611e7490613780565b80601f0160208091040260200160405190810160405280929190818152602001828054611ea090613780565b8015611eed5780601f10611ec257610100808354040283529160200191611eed565b820191906000526020600020905b815481529060010190602001808311611ed057829003601f168201915b5050505050905090565b60606000821415611f3f576040518060400160405280600181526020017f30000000000000000000000000000000000000000000000000000000000000008152509050612053565b600082905060005b60008214611f71578080611f5a906137e3565b915050600a82611f6a919061360b565b9150611f47565b60008167ffffffffffffffff811115611f8d57611f8c613948565b5b6040519080825280601f01601f191660200182016040528015611fbf5781602001600182028036833780820191505090505b5090505b6000851461204c57600182611fd89190613696565b9150600a85611fe7919061382c565b6030611ff391906135b5565b60f81b81838151811061200957612008613919565b5b60200101907effffffffffffffffffffffffffffffffffffffffffffffffffffffffffffff1916908160001a905350600a85612045919061360b565b9450611fc3565b8093505050505b919050565b60007f01ffc9a7000000000000000000000000000000000000000000000000000000007bffffffffffffffffffffffffffffffffffffffffffffffffffffffff1916827bffffffffffffffffffffffffffffffffffffffffffffffffffffffff1916149050919050565b6120cd8383836123c8565b600073ffffffffffffffffffffffffffffffffffffffff168373ffffffffffffffffffffffffffffffffffffffff1614156121105761210b816123cd565b61214f565b8173ffffffffffffffffffffffffffffffffffffffff168373ffffffffffffffffffffffffffffffffffffffff161461214e5761214d8382612416565b5b5b600073ffffffffffffffffffffffffffffffffffffffff168273ffffffffffffffffffffffffffffffffffffffff1614156121925761218d81612583565b6121d1565b8273ffffffffffffffffffffffffffffffffffffffff168273ffffffffffffffffffffffffffffffffffffffff16146121d0576121cf8282612654565b5b5b505050565b6121e083836126d3565b6121ed6000848484612231565b61222c576040517f08c379a000000000000000000000000000000000000000000000000000000000815260040161222390613230565b60405180910390fd5b505050565b60006122528473ffffffffffffffffffffffffffffffffffffffff166128a1565b156123bb578373ffffffffffffffffffffffffffffffffffffffff1663150b7a0261227b6118fe565b8786866040518563ffffffff1660e01b815260040161229d9493929190613167565b602060405180830381600087803b1580156122b757600080fd5b505af19250505080156122e857506040513d601f19601f820116820180604052508101906122e59190612c90565b60015b61236b573d8060008114612318576040519150601f19603f3d011682016040523d82523d6000602084013e61231d565b606091505b50600081511415612363576040517f08c379a000000000000000000000000000000000000000000000000000000000815260040161235a90613230565b60405180910390fd5b805181602001fd5b63150b7a0260e01b7bffffffffffffffffffffffffffffffffffffffffffffffffffffffff1916817bffffffffffffffffffffffffffffffffffffffffffffffffffffffff1916149150506123c0565b600190505b949350505050565b505050565b6008805490506009600083815260200190815260200160002081905550600881908060018154018082558091505060019003906000526020600020016000909190919091505550565b6000600161242384610df4565b61242d9190613696565b9050600060076000848152602001908152602001600020549050818114612512576000600660008673ffffffffffffffffffffffffffffffffffffffff1673ffffffffffffffffffffffffffffffffffffffff168152602001908152602001600020600084815260200190815260200160002054905080600660008773ffffffffffffffffffffffffffffffffffffffff1673ffffffffffffffffffffffffffffffffffffffff168152602001908152602001600020600084815260200190815260200160002081905550816007600083815260200190815260200160002081905550505b6007600084815260200190815260200160002060009055600660008573ffffffffffffffffffffffffffffffffffffffff1673ffffffffffffffffffffffffffffffffffffffff16815260200190815260200160002060008381526020019081526020016000206000905550505050565b600060016008805490506125979190613696565b90506000600960008481526020019081526020016000205490506000600883815481106125c7576125c6613919565b5b9060005260206000200154905080600883815481106125e9576125e8613919565b5b906000526020600020018190555081600960008381526020019081526020016000208190555060096000858152602001908152602001600020600090556008805480612638576126376138ea565b5b6001900381819060005260206000200160009055905550505050565b600061265f83610df4565b905081600660008573ffffffffffffffffffffffffffffffffffffffff1673ffffffffffffffffffffffffffffffffffffffff168152602001908152602001600020600083815260200190815260200160002081905550806007600084815260200190815260200160002081905550505050565b600073ffffffffffffffffffffffffffffffffffffffff168273ffffffffffffffffffffffffffffffffffffffff161415612743576040517f08c379a000000000000000000000000000000000000000000000000000000000815260040161273a906133b0565b60405180910390fd5b61274c81611892565b1561278c576040517f08c379a000000000000000000000000000000000000000000000000000000000815260040161278390613270565b60405180910390fd5b612798600083836120c2565b6001600360008473ffffffffffffffffffffffffffffffffffffffff1673ffffffffffffffffffffffffffffffffffffffff16815260200190815260200160002060008282546127e891906135b5565b92505081905550816002600083815260200190815260200160002060006101000a81548173ffffffffffffffffffffffffffffffffffffffff021916908373ffffffffffffffffffffffffffffffffffffffff160217905550808273ffffffffffffffffffffffffffffffffffffffff16600073ffffffffffffffffffffffffffffffffffffffff167fddf252ad1be2c89b69c2b068fc378daa952ba7f163c4a11628f55a4df523b3ef60405160405180910390a45050565b600080823b905060008111915050919050565b8280546128c090613780565b90600052602060002090601f0160209004810192826128e25760008555612929565b82601f106128fb57805160ff1916838001178555612929565b82800160010185558215612929579182015b8281111561292857825182559160200191906001019061290d565b5b509050612936919061293a565b5090565b5b8082111561295357600081600090555060010161293b565b5090565b600061296a61296584613510565b6134eb565b9050828152602081018484840111156129865761298561397c565b5b61299184828561373e565b509392505050565b60006129ac6129a784613541565b6134eb565b9050828152602081018484840111156129c8576129c761397c565b5b6129d384828561373e565b509392505050565b6000813590506129ea81613fab565b92915050565b6000813590506129ff81613fc2565b92915050565b600081359050612a1481613fd9565b92915050565b600081519050612a2981613fd9565b92915050565b600082601f830112612a4457612a43613977565b5b8135612a54848260208601612957565b91505092915050565b600082601f830112612a7257612a71613977565b5b8135612a82848260208601612999565b91505092915050565b600081359050612a9a81613ff0565b92915050565b600060208284031215612ab657612ab5613986565b5b6000612ac4848285016129db565b91505092915050565b60008060408385031215612ae457612ae3613986565b5b6000612af2858286016129db565b9250506020612b03858286016129db565b9150509250929050565b600080600060608486031215612b2657612b25613986565b5b6000612b34868287016129db565b9350506020612b45868287016129db565b9250506040612b5686828701612a8b565b9150509250925092565b60008060008060808587031215612b7a57612b79613986565b5b6000612b88878288016129db565b9450506020612b99878288016129db565b9350506040612baa87828801612a8b565b925050606085013567ffffffffffffffff811115612bcb57612bca613981565b5b612bd787828801612a2f565b91505092959194509250565b60008060408385031215612bfa57612bf9613986565b5b6000612c08858286016129db565b9250506020612c19858286016129f0565b9150509250929050565b60008060408385031215612c3a57612c39613986565b5b6000612c48858286016129db565b9250506020612c5985828601612a8b565b9150509250929050565b600060208284031215612c7957612c78613986565b5b6000612c8784828501612a05565b91505092915050565b600060208284031215612ca657612ca5613986565b5b6000612cb484828501612a1a565b91505092915050565b600060208284031215612cd357612cd2613986565b5b600082013567ffffffffffffffff811115612cf157612cf0613981565b5b612cfd84828501612a5d565b91505092915050565b600060208284031215612d1c57612d1b613986565b5b6000612d2a84828501612a8b565b91505092915050565b612d3c816136ca565b82525050565b612d4b816136dc565b82525050565b6000612d5c82613572565b612d668185613588565b9350612d7681856020860161374d565b612d7f8161398b565b840191505092915050565b6000612d958261357d565b612d9f8185613599565b9350612daf81856020860161374d565b612db88161398b565b840191505092915050565b6000612dce8261357d565b612dd881856135aa565b9350612de881856020860161374d565b80840191505092915050565b6000612e01603383613599565b9150612e0c8261399c565b604082019050919050565b6000612e24602b83613599565b9150612e2f826139eb565b604082019050919050565b6000612e47603283613599565b9150612e5282613a3a565b604082019050919050565b6000612e6a602683613599565b9150612e7582613a89565b604082019050919050565b6000612e8d601c83613599565b9150612e9882613ad8565b602082019050919050565b6000612eb0603483613599565b9150612ebb82613b01565b604082019050919050565b6000612ed3602483613599565b9150612ede82613b50565b604082019050919050565b6000612ef6601983613599565b9150612f0182613b9f565b602082019050919050565b6000612f19602c83613599565b9150612f2482613bc8565b604082019050919050565b6000612f3c603883613599565b9150612f4782613c17565b604082019050919050565b6000612f5f602a83613599565b9150612f6a82613c66565b604082019050919050565b6000612f82602983613599565b9150612f8d82613cb5565b604082019050919050565b6000612fa5601d83613599565b9150612fb082613d04565b602082019050919050565b6000612fc8602083613599565b9150612fd382613d2d565b602082019050919050565b6000612feb602083613599565b9150612ff682613d56565b602082019050919050565b600061300e602c83613599565b915061301982613d7f565b604082019050919050565b6000613031602083613599565b915061303c82613dce565b602082019050919050565b6000613054602983613599565b915061305f82613df7565b604082019050919050565b6000613077602f83613599565b915061308282613e46565b604082019050919050565b600061309a602183613599565b91506130a582613e95565b604082019050919050565b60006130bd603183613599565b91506130c882613ee4565b604082019050919050565b60006130e0602c83613599565b91506130eb82613f33565b604082019050919050565b6000613103602083613599565b915061310e82613f82565b602082019050919050565b61312281613734565b82525050565b60006131348285612dc3565b91506131408284612dc3565b91508190509392505050565b60006020820190506131616000830184612d33565b92915050565b600060808201905061317c6000830187612d33565b6131896020830186612d33565b6131966040830185613119565b81810360608301526131a88184612d51565b905095945050505050565b60006020820190506131c86000830184612d42565b92915050565b600060208201905081810360008301526131e88184612d8a565b905092915050565b6000602082019050818103600083015261320981612df4565b9050919050565b6000602082019050818103600083015261322981612e17565b9050919050565b6000602082019050818103600083015261324981612e3a565b9050919050565b6000602082019050818103600083015261326981612e5d565b9050919050565b6000602082019050818103600083015261328981612e80565b9050919050565b600060208201905081810360008301526132a981612ea3565b9050919050565b600060208201905081810360008301526132c981612ec6565b9050919050565b600060208201905081810360008301526132e981612ee9565b9050919050565b6000602082019050818103600083015261330981612f0c565b9050919050565b6000602082019050818103600083015261332981612f2f565b9050919050565b6000602082019050818103600083015261334981612f52565b9050919050565b6000602082019050818103600083015261336981612f75565b9050919050565b6000602082019050818103600083015261338981612f98565b9050919050565b600060208201905081810360008301526133a981612fbb565b9050919050565b600060208201905081810360008301526133c981612fde565b9050919050565b600060208201905081810360008301526133e981613001565b9050919050565b6000602082019050818103600083015261340981613024565b9050919050565b6000602082019050818103600083015261342981613047565b9050919050565b600060208201905081810360008301526134498161306a565b9050919050565b600060208201905081810360008301526134698161308d565b9050919050565b60006020820190508181036000830152613489816130b0565b9050919050565b600060208201905081810360008301526134a9816130d3565b9050919050565b600060208201905081810360008301526134c9816130f6565b9050919050565b60006020820190506134e56000830184613119565b92915050565b60006134f5613506565b905061350182826137b2565b919050565b6000604051905090565b600067ffffffffffffffff82111561352b5761352a613948565b5b6135348261398b565b9050602081019050919050565b600067ffffffffffffffff82111561355c5761355b613948565b5b6135658261398b565b9050602081019050919050565b600081519050919050565b600081519050919050565b600082825260208201905092915050565b600082825260208201905092915050565b600081905092915050565b60006135c082613734565b91506135cb83613734565b9250827fffffffffffffffffffffffffffffffffffffffffffffffffffffffffffffffff03821115613600576135ff61385d565b5b828201905092915050565b600061361682613734565b915061362183613734565b9250826136315761363061388c565b5b828204905092915050565b600061364782613734565b915061365283613734565b9250817fffffffffffffffffffffffffffffffffffffffffffffffffffffffffffffffff048311821515161561368b5761368a61385d565b5b828202905092915050565b60006136a182613734565b91506136ac83613734565b9250828210156136bf576136be61385d565b5b828203905092915050565b60006136d582613714565b9050919050565b60008115159050919050565b60007fffffffff0000000000000000000000000000000000000000000000000000000082169050919050565b600073ffffffffffffffffffffffffffffffffffffffff82169050919050565b6000819050919050565b82818337600083830152505050565b60005b8381101561376b578082015181840152602081019050613750565b8381111561377a576000848401525b50505050565b6000600282049050600182168061379857607f821691505b602082108114156137ac576137ab6138bb565b5b50919050565b6137bb8261398b565b810181811067ffffffffffffffff821117156137da576137d9613948565b5b80604052505050565b60006137ee82613734565b91507fffffffffffffffffffffffffffffffffffffffffffffffffffffffffffffffff8214156138215761382061385d565b5b600182019050919050565b600061383782613734565b915061384283613734565b9250826138525761385161388c565b5b828206905092915050565b7f4e487b7100000000000000000000000000000000000000000000000000000000600052601160045260246000fd5b7f4e487b7100000000000000000000000000000000000000000000000000000000600052601260045260246000fd5b7f4e487b7100000000000000000000000000000000000000000000000000000000600052602260045260246000fd5b7f4e487b7100000000000000000000000000000000000000000000000000000000600052603160045260246000fd5b7f4e487b7100000000000000000000000000000000000000000000000000000000600052603260045260246000fd5b7f4e487b7100000000000000000000000000000000000000000000000000000000600052604160045260246000fd5b600080fd5b600080fd5b600080fd5b600080fd5b6000601f19601f8301169050919050565b7f4e756d626572206f6620746f6b656e732063616e206e6f74206265206c65737360008201527f207468616e206f7220657175616c20746f203000000000000000000000000000602082015250565b7f455243373231456e756d657261626c653a206f776e657220696e646578206f7560008201527f74206f6620626f756e6473000000000000000000000000000000000000000000602082015250565b7f4552433732313a207472616e7366657220746f206e6f6e20455243373231526560008201527f63656976657220696d706c656d656e7465720000000000000000000000000000602082015250565b7f4f776e61626c653a206e6577206f776e657220697320746865207a65726f206160008201527f6464726573730000000000000000000000000000000000000000000000000000602082015250565b7f4552433732313a20746f6b656e20616c7265616479206d696e74656400000000600082015250565b7f43616e206f6e6c79206d696e7420757020746f204d41585f4e46545f5055524360008201527f4841534520706572207472616e73616374696f6e000000000000000000000000602082015250565b7f4552433732313a207472616e7366657220746f20746865207a65726f2061646460008201527f7265737300000000000000000000000000000000000000000000000000000000602082015250565b7f4552433732313a20617070726f766520746f2063616c6c657200000000000000600082015250565b7f4552433732313a206f70657261746f7220717565727920666f72206e6f6e657860008201527f697374656e7420746f6b656e0000000000000000000000000000000000000000602082015250565b7f4552433732313a20617070726f76652063616c6c6572206973206e6f74206f7760008201527f6e6572206e6f7220617070726f76656420666f7220616c6c0000000000000000602082015250565b7f4552433732313a2062616c616e636520717565727920666f7220746865207a6560008201527f726f206164647265737300000000000000000000000000000000000000000000602082015250565b7f4552433732313a206f776e657220717565727920666f72206e6f6e657869737460008201527f656e7420746f6b656e0000000000000000000000000000000000000000000000602082015250565b7f53656e742065746865722076616c756520697320696e636f7272656374000000600082015250565b7f507572636861736520776f756c6420657863656564206d617820737570706c79600082015250565b7f4552433732313a206d696e7420746f20746865207a65726f2061646472657373600082015250565b7f4552433732313a20617070726f76656420717565727920666f72206e6f6e657860008201527f697374656e7420746f6b656e0000000000000000000000000000000000000000602082015250565b7f4f776e61626c653a2063616c6c6572206973206e6f7420746865206f776e6572600082015250565b7f4552433732313a207472616e73666572206f6620746f6b656e2074686174206960008201527f73206e6f74206f776e0000000000000000000000000000000000000000000000602082015250565b7f4552433732314d657461646174613a2055524920717565727920666f72206e6f60008201527f6e6578697374656e7420746f6b656e0000000000000000000000000000000000602082015250565b7f4552433732313a20617070726f76616c20746f2063757272656e74206f776e6560008201527f7200000000000000000000000000000000000000000000000000000000000000602082015250565b7f4552433732313a207472616e736665722063616c6c6572206973206e6f74206f60008201527f776e6572206e6f7220617070726f766564000000000000000000000000000000602082015250565b7f455243373231456e756d657261626c653a20676c6f62616c20696e646578206f60008201527f7574206f6620626f756e64730000000000000000000000000000000000000000602082015250565b7f53616c65206973206e6f742061637469766520617420746865206d6f6d656e74600082015250565b613fb4816136ca565b8114613fbf57600080fd5b50565b613fcb816136dc565b8114613fd657600080fd5b50565b613fe2816136e8565b8114613fed57600080fd5b50565b613ff981613734565b811461400457600080fd5b5056fea2646970667358221220e674f099828243f5472a3821ac96b5e56cd97ba0dcdd17fafe1ab9e4cf60c07864736f6c63430008070033",
  "linkReferences": {},
  "deployedLinkReferences": {}
}